:020000040800F2
:10400000184C002039420008D9710008116C0008D2
:10401000D5710008734400085D9F0008000000008F
:1040200000000000000000000000000059740008BB
:10403000734600080000000057740008B5740008BB
:1040400053420008534200085342000853420008FC
:1040500053420008534200085342000853420008EC
:1040600053420008534200085342000853420008DC
:1040700053420008534200085342000853420008CC
:104080005342000853420008534200080000000059
:104090000000000000000000000000005342000883
:1040A000534200085342000853420008534200089C
:1040B000534200085342000853420008534200088C
:1040C000534200085342000853420008534200087C
:1040D0005342000853420008534200080000000009
:1040E00053420008534200085342000800000000F9
:1040F0000000000000000000000000005342000823
:1041000000000000534200085342000853420008D8
:10411000000000000000000000000000000000009F
:10412000534200085342000853420008534200081B
:1041300053420008000000000000000000000000E2
:10414000000000000000000000000000DD71000819
:1041500059450008534200085342000853420008E2
:104160005342000853420008000000000000000015
:10417000000000000000000000000000000000003F
:104180000000000053420008000000000000000092
:10419000534200085342000800F002F800F03CF8D7
:1041A0000AA090E8000C82448344AAF10107DA4592
:1041B00001D100F031F8AFF2090EBAE80F0013F0A8
:1041C000010F18BFFB1A43F001031847485E0000B7
:1041D000685E0000103A24BF78C878C1FAD8520748
:1041E00024BF30C830C144BF04680C607047000071
:1041F0000023002400250026103A28BF78C1FBD8F0
:10420000520728BF30C148BF0B6070471FB505F08B
:10421000EBFE1FBD10B510BD00F0F1F81146FFF721
:10422000F5FF05F0B9FE00F00FF903B4FFF7F2FF58
:1042300003BC00F017F9000009488047094800470F
:10424000FEE7FEE7FEE7FEE7FEE7FEE7FEE7FEE746
:10425000FEE7FEE704480549054A064B70470000A3
:104260006D7500089941000818460020184C002080
:10427000184800201848002053EA020C00F069801A
:104280002DE9F04B4FF00006002B1FBFB3FA83F56A
:1042900003FA05F424FA05F65E4012BF1643B2FA9B
:1042A00082F502FA05F4C5F120051EBF22FA05FCCD
:1042B00044EA0C04203556EA044C4FEA144418BF73
:1042C000641C4FF000084FF00009904271EB030CA2
:1042D00039D3002919BFB1FA81F701FA07F6B0FA0C
:1042E00080F700FA07F6C7F120071EBF20FA07FC87
:1042F00046EA0C062037B6FBF4FCA7EB0507103F97
:1043000007F01F0BCBF120060CFA0BFB2CFA06F67C
:1043100044BFB3460026202FA4BF5E464FF0000BDB
:104320005BEA060C08BF4FF0010B19EB0B09ABFB66
:10433000027C48EB0608C01B06FB02CC0BFB03CC3F
:1043400071EB0C01C1E70B46024641464846BDE809
:10435000F08B13B54FF000004FF00001AFF3008079
:10436000BDE81C4070474FF000020429C0F01280E5
:1043700010F0030C00F01B80CCF1040CBCF1020F18
:1043800018BF00F8012BA8BF20F8022BA1EB0C01ED
:1043900000F00DB85FEAC17C24BF00F8012B00F8E3
:1043A000012B48BF00F8012B70474FF0000200B509
:1043B000134694469646203922BFA0E80C50A0E848
:1043C0000C50B1F12001BFF4F7AF090728BFA0E8F6
:1043D0000C5048BF0CC05DF804EB890028BF40F8C2
:1043E000042B08BF704748BF20F8022B11F0804F04
:1043F00018BF00F8012B704770477047704775462B
:1044000000F02CF8AE4605006946534620F0070040
:10441000854618B020B5FFF71DFFBDE820404FF0DE
:1044200000064FF000074FF000084FF0000B21F09E
:104430000701AC46ACE8C009ACE8C009ACE8C0096B
:10444000ACE8C0098D46704710B50446AFF3008054
:104450002046BDE81040FFF7E8BE00000048704766
:10446000B845002001491820ABBEFEE72600020037
:10447000704700BFFEE70346042B15D007DC7BB175
:10448000012B0ED0022B0DD0032B12D10BE0202BD1
:104490000BD0212B0AD0222B09D0232B09D107E0E6
:1044A00008E007E006E005E004E003E002E001E0E8
:1044B00000E000BF00BF00207047002070470000F0
:1044C00010B500220449054803F083FB0449034862
:1044D00003F070FB002010BDB4360020D829002066
:1044E000B42E002070B504460E46002503E0605D42
:1044F00002F07CFE6D1C3068A842F8D821460448C2
:1045000003F058FB024803F021FB002070BD0000BF
:10451000D829002010B503460C460021084610BDDE
:104520002DE9F04104460D4600260A48D0F8BC7239
:10453000D7F8140210B10120BDE8F0812A462146C7
:10454000044803F046FB034803F0F6FB06463046FA
:10455000F2E70000D829002010B5024800F0AEFABA
:1045600010BD0000680100200146087810381823AB
:10457000B0FBF3F20848805CC865032A05D90868D7
:104580006FF30900001D886503E008686FF30900F8
:104590008865886D70470000F29F00080146002082
:1045A0008A6A8B69CBB932B1012A0DD0022A03D0B5
:1045B000032A10D10EE000BFCB6A03F08073B3F181
:1045C000807F00D1012007E0CB6AB3F1C07F00D12A
:1045D000012001E000E000BF34E08B69B3F5005F2B
:1045E0001AD132B1012A07D0022A03D0032A11D1ED
:1045F0000AE000BF01200EE0CB6A03F08073B3F144
:10460000807F00D1012006E0CB6AB3F1C07F00D1EA
:10461000012000E000BF15E032B1012A05D0022AD6
:1046200004D0032A0CD103E000BF00BF012008E042
:10463000CB6A03F08073B3F1807F00D1012000E0EA
:1046400000BF00BF704730B50468246824F480249C
:1046500005682C60046863608468402C04D1046899
:10466000A2600468E16003E00468A1600468E2609D
:1046700030BD70470021024880F8E41F70470000F9
:10468000C811002000BFEFF31081084672B67047D2
:104690000749D1F8EC1F21B10549D1F8EC1F81423F
:1046A00000D070470122024981F8E42F00BFF8E7EB
:1046B000C811002000B962B6704700000B49D1F85C
:1046C000EC1F21B10949D1F8EC1F814200D070479D
:1046D0000649D1F8E01F491C31B10449D1F8E01F67
:1046E000491C024AC2F8E01F00BFF0E7C8110020D1
:1046F00000487047C801002040F6EE707047000087
:1047000010B501F0F5FD04460348006800F4604070
:1047100000B16400204610BD083802400B49D1F8B2
:10472000EC1F21B10949D1F8EC1F814200D070473C
:104730000649D1F8DC1F491C31B10449D1F8DC1F0E
:10474000491C024AC2F8DC1F00BFF0E7C811002074
:10475000014890F8E40F7047C811002070B5044676
:104760000D4641F6F0710548FFF71FFE0448C0F8FA
:10477000E84FC0F8EC5F00F005F870BDC8010020FC
:10478000C81100200A48D0F8EC0F00B97047094959
:104790000748D0F8EC0F016407490548D0F8EC0F42
:1047A000C16306490248D0F8EC0FC16400BFEDE7D1
:1047B000C81100201D470008BD46000891460008AA
:1047C00010B5FFF75FFF044600210448C0F8DC1F66
:1047D000C0F8E01F2046FFF76DFF10BDC811002094
:1047E00070B506462448D0F8E80F00B970BD06B988
:1047F000224EFFF785FF0546AE4200D92E46B5FB97
:10480000F6F404B90124641EB4F5803F01D34FF6D9
:10481000FF741949D1F8E80F02F040F91648D0F8B2
:10482000E80F0068C06820F480711348D0F8E80FE2
:104830000068C16000211048D0F8E80F006881626C
:1048400000BFA1B20C48D0F8E80F0068C162A1B265
:104850000948D0F8E80FC16000BF00210648D0F831
:10486000E80F0068416201210348D0F8E80F0068B2
:10487000416100BFBAE70000C811002020A1070075
:1048800010B52A48D0F8EC0F18B12848D0F8E80F36
:1048900008B9012010BD254890F8E50F08B10020A7
:1048A000F8E7FFF76FFF214940F6EE73A1F580525C
:1048B000D1F8EC0F1E4900F09FFA04462CB10121FB
:1048C0001A4880F8E41F0120E4E71848D0F8E80F00
:1048D0000068C06840F480711448D0F8E80F0068A0
:1048E000C1601249D1F8E80F02F096F80446B4B15D
:1048F0000E48D0F8E80F0068C06820F480710B48BB
:10490000D0F8E80F0068C1600849D1F8EC0F00F05A
:104910007FF80121054880F8E41F0120BAE7012152
:10492000024880F8E51F0020B4E70000C81100200D
:104930001000024010B51548D0F8EC0F18B113481C
:10494000D0F8E80F00B910BD104890F8E50F00B995
:10495000F9E70E49D1F8E80F02F0A0F80B48D0F8BB
:10496000E80F0068C06820F480710848D0F8E80FAC
:104970000068C1600549D1F8EC0F00F049F800214A
:10498000024880F8E51F00BFDDE70000C8110020E5
:1049900070B5FFF777FE05460548D0F8E04F0021D7
:1049A000C0F8E01F2846FFF785FE204670BD0000D6
:1049B000C811002070B5FFF765FE05460548D0F820
:1049C000DC4F0021C0F8DC1F2846FFF773FE2046AD
:1049D00070BD0000C811002000BFFEE770B50A4896
:1049E0000468001D0568001D0668344454B108229F
:1049F0000649204602F00EF90422044910312846E7
:104A000002F008F970BD0000107AFF1F520000206C
:104A100070B50446A56D00F037FB064694F83500E6
:104A2000022808D08020606500BF002084F8340090
:104A300000BF012070BD2068006820F016002168CA
:104A400008602068406920F0800021684861206C7F
:104A500008B9A06C28B12068006820F0080021681F
:104A600008602068006820F001002168086010E0FC
:104A700000F00AFB801B05280BD92020606503206D
:104A800084F8350000BF002084F8340000BF032004
:104A9000D0E72068006800F001000028E8D194F811
:104AA0005C103F208840A860012084F8350000BFDA
:104AB000002084F8340000BF00BFBBE7F8B504460F
:104AC000002000908F4800684FF41651B0FBF1F7BA
:104AD000A56D2E6894F85C10082088403040C8B15D
:104AE0002068006800F00400A0B12068006820F091
:104AF00004002168086094F85C1008208840A860D1
:104B0000606D40F00100606500224FF400517E4866
:104B100000F0B4FA94F85C1001208840304068B18D
:104B20002068406900F0800040B194F85C100120DA
:104B30008840A860606D40F00200606594F85C10E9
:104B400004208840304068B12068006800F002000E
:104B500040B194F85C1004208840A860606D40F07B
:104B60000400606594F85C1010208840304078B3F1
:104B70002068006800F0080050B394F85C10102022
:104B80008840A8602068006800F4802080B1206818
:104B9000006800F4002028B9206CC8B12046216CC0
:104BA000884715E0A06C98B12046A16C88470FE0BB
:104BB0002068006800F4807028B92068006820F040
:104BC000080021680860206C10B12046216C8847DD
:104BD00094F85C10202088403040002865D0206880
:104BE000006800F0100000285FD094F85C102020CE
:104BF0008840A86094F83500052828D1206800680E
:104C000020F01600216808602068406920F08000CC
:104C100021684861206C08B9A06C28B12068006840
:104C200020F008002168086094F85C103F2088405C
:104C3000A860012084F8350000BF002084F834000B
:104C400000BF206D10B12046216D8847F8BD206857
:104C5000006800F4802080B12068006800F4002023
:104C600028B9606C10B12046616C88471DE0E06B8C
:104C7000D8B12046E16B884717E02068006800F44F
:104C8000807068B92068006820F010002168086012
:104C9000012084F8350000BF002084F8340000BFF4
:104CA000E06B10B12046E16B8847606D38B3606DF2
:104CB00000F00100F0B1052084F83500206800689C
:104CC00020F001002168086000BF0098401C00909F
:104CD000B84200D905E02068006800F00100002813
:104CE000F3D100BF012084F8350000BF002084F814
:104CF000340000BFE06C10B12046E16C884700BF73
:104D0000A4E700008C000020000802402DE9F041DB
:104D10000446002500F0B8F9074614B90120BDE8A3
:104D2000F081606A00B100BF022084F8350000BF46
:104D3000002084F8340000BF2068006820F00100E3
:104D4000216808600AE000F09FF9C01B052805D91A
:104D500020206065032084F83500E0E720680068C3
:104D600000F001000028EED12068056821480540C8
:104D7000D4E901010843E1680843216908436169F6
:104D80000843A1690843E1690843216A08430543D0
:104D9000606A042803D1D4E90B0108430543206865
:104DA00005602068456925F00705606A0543606A6B
:104DB00004280DD1A06A0543E06A48B12046FFF7F8
:104DC000EDFB28B140206065012084F83500A6E79E
:104DD000206845612046FFF7C7FB064694F85C1043
:104DE0003F208840B06000206065012084F83500D5
:104DF000002094E73F8010F02DE9F04704460D466F
:104E000016461F464FF00008D4F8589000BF94F89B
:104E10003400012802D10220BDE8F087012084F887
:104E2000340000BF94F83500012825D1022084F811
:104E30003500002060653B46324629462046FFF794
:104E400002FC94F85C103F208840C9F808002068F4
:104E5000006840F0160021680860206C28B12068C6
:104E6000006840F00800216808602068006840F091
:104E700001002168086006E000BF002084F83400CB
:104E800000BF4FF002084046C6E7000070B5044678
:104E900000F0FAF806462546681C10B10448007870
:104EA000054400BF00F0F0F8801BA842FAD370BDA3
:104EB00088000020F8B502460B460025002400209B
:104EC0000021C7E0012606FA01F51E6806EA05047E
:104ED000AC4274D11E7906F00306012E04D01E796F
:104EE00006F00306022E13D190684F000326BE4041
:104EF000B0434F00DE68BE403043906050680126EA
:104F00008E40B0431E79C6F300168E403043506089
:104F10001E7906F00306032E09D0D0684F00032641
:104F2000BE40B0434F009E68BE403043D0601E7903
:104F300006F00306022E13D1CF0802F1200656F820
:104F400027004E07F70E0F26BE40B0434F07FF0E57
:104F50001E69BE403043CF0802F1200646F8270004
:104F600010684F000326BE40B0431E7906F00306CA
:104F70004F00BE40304310605E6806F44036002E9D
:104F800067D000BF00260096344E366846F480464F
:104F9000324F3E603E46366806F48046009600BFBB
:104FA00000BF2F4E8F0856F827008E07370F0F26A9
:104FB000BE40B0432B4EB24202D1002615E048E07D
:104FC000294EB24201D101260FE0284EB24201D152
:104FD00002260AE0264EB24201D1032605E0254E04
:104FE000B24201D1042600E007268F073F0FBE40E2
:104FF00030431B4E8F0846F827001F4E3068A043F1
:105000005E6806F4801606B120431B4E3060361DE4
:105010003068A0435E6806F4001606B12043164EC1
:10502000361D3060144E361F3068A0435E6806F4AB
:10503000003606B12043104E361F3060361F3068F0
:10504000A0435E6806F4803606B120430A4E083E4F
:105050003060491C1029FFF435AFF8BD44380240D8
:1050600008380140000002400004024000080240ED
:10507000000C024000100240083C01400AB181616E
:1050800001E00B048361704701480068704700002D
:10509000800000200348006803490978084401495A
:1050A00008607047800000208800002010B50D487F
:1050B000006840F400700B4908600846006840F43E
:1050C000806008600846006840F480700860032033
:1050D00000F0A6F80F2000F007F800F02BF80020F1
:1050E00010BD0000003C024070B504460E48007838
:1050F0004FF47A71B1FBF0F00C490968B1FBF0F59F
:10510000284601F0ABFB08B1012070BD102C07D27E
:1051100000222146501E00F045F80548046001E0D9
:105120000120F2E70020F0E7880000208C0000203A
:105130008400002008B500BF002000900E480068E1
:1051400040F480400C4908600846006800F4804044
:10515000009000BF00BF00BF00200090081F006843
:1051600040F08050091F08600846006800F0805039
:10517000009000BF00BF08BD443802400146084609
:1051800000280DDB00BF00BF00F01F0301229A4082
:1051900043099B0003F1E023C3F8002100BF00BFD7
:1051A00000BF70472DE9F05F80460D461646002788
:1051B00004F0D6FE074639462A46334601F007007A
:1051C000C0F1070ABAF1040F02D94FF0040A01E056
:1051D000C0F1070AD14600F1040ABAF1070F02D262
:1051E0004FF0000A01E0A0F1030AD4464FF0010A93
:1051F0000AFA09FAAAF1010A0AEA020A0AFA0CFAF8
:105200004FF0010B0BFA0CFBABF1010B0BEA030B9C
:105210004AEA0B042146404604F0AAFEBDE8F09F8E
:1052200000BF00F00702064B19684FF6FF03194054
:10523000044B0B4343EA0221014B196000BF704746
:105240000CED00E00000FA0570470246106841626C
:1052500000207047F0B5034615461868446A21B926
:1052600044EA05401E68B06219E01868806A04EBE1
:105270001044002208E0186800F5827050F82200FF
:1052800004EB1044501CC2B2481E9042F3D844EACA
:105290000547186800F582704E1E40F82670002001
:1052A000F0BD10B50446D4F8E00403F0C0F910BD19
:1052B00070B504460D4605EBC50304F1140101EB7E
:1052C0008301CA682946D4F8E00403F0A3F870BD4E
:1052D00070B504460D4605EBC50304F5157101EBE9
:1052E0008301CA682946D4F8E00403F01BF970BDB5
:1052F00010B50446D4F8E00403F09CF910BD2DE984
:10530000F04104460D4605F08000802808D105F0E4
:105310000F0000EBC00104F1140000EB810607E070
:1053200005F00F0000EBC00104F5157000EB8106DD
:105330003146206804F0D4FB07463846BDE8F081CA
:1053400070B504460E4606F0800080280AD106F0AB
:105350000F0000EBC00104F1140000EB81050120F7
:10536000687009E006F00F0000EBC00104F515704D
:1053700000EB81050020687006F00F00287000BF68
:1053800094F89404012801D1022070BD012084F812
:10539000940400BF2946206803F030FF00BF0020BE
:1053A00084F8940400BF00BFEFE770B504460E46D2
:1053B00006F00F002179884201D9012070BD06F066
:1053C000800080280AD106F00F0000EBC00104F134
:1053D000140000EB81050120687009E006F00F0061
:1053E00000EBC00104F5157000EB8105002068702A
:1053F0000020A87006F00F00287000BF94F89404F5
:10540000012801D10220D9E7012084F8940400BFCB
:105410002946206804F0F0F800BF002084F89404C6
:1054200000BF00BFCAE7024601F00F0000EBC00357
:1054300002F5157000EB8300406970472DE9F047D5
:1054400005460E4690461F464FF0000906F08000C4
:1054500080280AD106F00F0000EBC00105F114000E
:1054600000EB81040120607009E006F00F0000EB02
:10547000C00105F5157000EB81040020607006F096
:105480000F002070C8F30A00A0602771607808B18F
:1054900020786083022F01D10020607100BF95F851
:1054A0009404012802D10220BDE8F087012085F88C
:1054B000940400BF2146286803F0ACFD00BF002023
:1054C00085F8940400BF4846EEE72DE9F041054613
:1054D0000E461746984606F00F0000EBC00105F592
:1054E000157000EB8104E760C4F810800020606153
:1054F000607006F00F002070A879012800D1E761E4
:10550000AA792146286804F00BF90020BDE8F08153
:1055100070B504460D4605F00F002179884201D987
:10552000012070BD05F0800080280AD105F00F0031
:1055300000EBC00104F1140000EB81060120707043
:1055400007E005EBC50104F5157000EB81060020AE
:1055500070700120B07005F00F00307000BF94F83B
:105560009404012801D10220DBE7012084F894048F
:1055700000BF3146206804F086F805F00F0028B916
:10558000A17904F29C42206803F0FEFF00BF0020D6
:1055900084F8940400BF00BFC3E72DE9F04105463D
:1055A0000E461746984606F00F0000EBC00105F1C5
:1055B000140000EB8104E760C4F8108000206061F3
:1055C0000120607006F00F002070A879012800D13A
:1055D000E761AA792146286804F0A2F80020BDE816
:1055E000F0812DE9FE4F0446D4F800B05E462068F5
:1055F00004F058FB002874D1206804F092FB08B92D
:10560000BDE8FE8F40F608008059C0F30D20C4F8B5
:10561000D404206804F085FB00F00200022805D1C4
:105620002068406900F0020021684861206804F0A9
:1056300078FB00F01000102845D12068806920F028
:10564000100021688861DBF8209009F00F0000EB62
:10565000C00104F5157000EB810AC9F3434002282C
:105660001AD147F6F07009EA000030B3C9F30A1204
:105670005846DAF80C1004F059FBC9F30A11DAF8AD
:105680000C000844CAF80C00C9F30A11DAF8140037
:105690000844CAF8140010E0C9F3434006280CD1AE
:1056A000082204F29C41584604F040FBC9F30A1159
:1056B000DAF814000844CAF814002068806940F041
:1056C000100021688861206804F02BFB00F40020A2
:1056D000B0F5002F7BD10025206804F0F2FA02908B
:1056E00072E0E1E2029800F00100002868D0E9B21F
:1056F000206804F009FB804608F0010048B1012150
:1057000006F5306000EB451081602946204601F027
:10571000A5FD08F00800082809D1082106F5306029
:1057200000EB451081602946204601F065FD08F038
:105730001000102805D1102106F5306000EB45104F
:10574000816008F00200022824D1DBF8140000F088
:105750008000802807D140F60400805940F4806121
:1057600040F60400815105EBC50104F5157000EB0E
:10577000810A9AF80300012806D100208AF8030064
:10578000E9B2204600F09BFA022106F5306000EBFA
:105790004510816008F02000202805D1202106F561
:1057A000306000EB4510816008F40050B0F5005FF8
:1057B00006D14FF4005106F5306000EB45108160D2
:1057C0006D1C029840080290029800288AD1206837
:1057D00004F0A7FA00F48020B0F5802F7DD1206876
:1057E00004F065FA029000259AE0029800F00100AA
:1057F000002873D0E9B2206804F06DFA804608F002
:105800000100F0B305F00F0101208840019040F63F
:1058100034008159019821EA000040F63401885192
:10582000012106F5106000EB45108160A079012888
:1058300024D105EBC50104F1140000EB810005EB58
:10584000C502C16804F1140000EB820080680144C5
:1058500005EBC50204F1140000EB8200C1606DB9D4
:1058600005EBC50104F1140000EB8100006928B9C3
:1058700004F29C420121206803F086FEE9B2204632
:1058800000E001E0FFF714FD08F00800082805D14A
:10589000082106F5106000EB4510816008F010004B
:1058A000102805D1102106F5106000EB451081602D
:1058B00008F04000402805D1402106F5106000EBBB
:1058C0004510816008F0020002281DD12946584683
:1058D00004F0ABF905EBC50101E025E01CE004F1A3
:1058E000140000EB810A9AF80300012806D1002079
:1058F0008AF80300E9B2204600F0D8F9022106F543
:10590000106000EB4510816008F08000802803D112
:105910002946204601F044FD6D1C02984008029083
:10592000029800287FF461AF206804F0FAF900F0D3
:105930000040B0F1004F1CD140F60400805920F027
:10594000010140F60400815194F8CC04012807D1EC
:10595000002084F8CC0400212046FFF775FC02E00B
:10596000204600F0CBFA2068406900F00040216832
:105970004861206804F0D5F900F40060B0F5006FCC
:105980000ED140F60800805900F0010010B1204609
:1059900000F00CFB2068406900F400602168486159
:1059A000206804F0BEF900F48050B0F5805F7ED12D
:1059B00040F60400805920F0010140F604008151B6
:1059C0001021206804F031F9002732E04FF67F31D2
:1059D00006F5106000EB4710816006F5106000EBE3
:1059E0004710006820F4001106F5106000EB471026
:1059F00001604FF67F3106F5306000EB47108160A3
:105A000006F5306000EB4710006820F4001106F541
:105A1000306000EB4710016006F5306000EB471086
:105A2000006840F0006106F5306000EB471001604F
:105A30007F1C2079B842C9D840F61C00805940F03C
:105A4000011140F61C008151E07B70B1D6F884084A
:105A500040F00B01C6F8841840F64400805940F02D
:105A60000B0140F6440081510FE040F614008059CC
:105A700042F22B01084340F614018851081F805957
:105A800040F00B014FF401608151D6F8000820F47A
:105A9000FE60C6F80008A17904F29C42206803F079
:105AA00073FD2068406900F48050216800E000E048
:105AB0004861206804F035F900F40050B0F5005F4B
:105AC00017D1206803F00EFB206804F0D8F8E071CD
:105AD00000F008FC0090E2792068009904F0A8F931
:105AE000204600F0F9F92068406900F40050216870
:105AF0004861206804F015F900F00800082808D172
:105B0000204600F002FA2068406900F00800216891
:105B10004861206804F005F900F08000802818D161
:105B2000DBF8180020F08000CBF8180001250DE00C
:105B300005EBC50104F5157000EB8100C078012864
:105B400003D1E9B22046FFF7DAFB6D1C2079A842A9
:105B5000EED8206804F0E5F800F48010B0F5801F5E
:105B60002DD1012522E006F5106000EB4510D0F89C
:105B7000009005EBC50104F1140000EB81000079F1
:105B8000012812D109F00040B0F1004F0DD10121E0
:105B900005EBC50204F1140000EB8200C170E8B20D
:105BA00040F080012046FFF7AAFB6D1C2079A84237
:105BB000D9D82068406900F48010216848612068C5
:105BC00004F0AFF800F40010B0F5001F44D1012537
:105BD00038E006F5306000EB4510D0F8009005EB9A
:105BE000C50104F5157000EB81000079012828D16A
:105BF00009F00040B0F1004F23D194F8D40400F034
:105C00000100C9F3004188421BD1012105EBC50207
:105C100004F5157000EB8200C170DBF8180040F04D
:105C20008000CBF81800DBF8140000F0800040B9C9
:105C300040F60400805940F4007140F604008151A0
:105C400003E06D1C2079A842C3D800BF20684069DA
:105C500000F4001021684861206804F062F800F048
:105C60008040B0F1804F08D12046FFF71AFB206832
:105C7000406900F0804021684861206804F051F8D4
:105C800000F0040004280FD12068D0F8049009F037
:105C90000400042802D12046FFF72AFB2068406850
:105CA00040EA09002168486000BFA9E470B50446D5
:105CB0000D462946D4F8E00402F028FD70BD70B509
:105CC00004460D462946D4F8E00402F043FD70BDB9
:105CD000F8B504460CB90120F8BD266894F895047F
:105CE00028B9002084F89404204600F0A1F803208D
:105CF00084F89504B6F1A04F01D10021A17120686C
:105D000003F03AFC207C8DF8000094E80F0003F0CB
:105D1000FDF920B1022084F895040120DCE7002180
:105D2000206804F033F820B1022084F895040120A3
:105D3000D2E7002531E0012105EBC50204F1140092
:105D400000EB8200417005EBC50104F1140000F87E
:105D5000215005EBC50100EB81004583002105EBD7
:105D6000C50204F1140000EB8200017105EBC502CD
:105D700004F1140000EB8200816005EBC50204F120
:105D8000140000EB8200C16005EBC50204F11400B1
:105D900000EB82000161681CC5B22079A842CADC10
:105DA00000252AE0002105EBC50204F5157000EB83
:105DB0008200417005EBC50104F5157000F8215013
:105DC000002105EBC50200EB8200017105EBC50265
:105DD00004F5157000EB8200816005EBC50204F547
:105DE000157000EB8200C16005EBC50204F515706B
:105DF00000EB82000161681CC5B22079A842D1DCA9
:105E0000207C8DF8000094E80F0003F0C1FA20B167
:105E1000022084F8950401205EE7002060740120D0
:105E200084F89504206803F0A1FA002054E70000EC
:105E300010B586B00446142101A8FEF7B6FA206812
:105E4000B0F1A04F42D100BF002000902048006870
:105E500040F001001E4908600846006800F001009B
:105E6000009000BF00BF4FF4C0500190022002908C
:105E700000200390032004900A20059001A91548F2
:105E8000FFF718F800BF1248001D006840F08000BE
:105E90000F49091D086000BF002000900C48143015
:105EA000006840F480400A491431086008460068E0
:105EB00000F48040009000BF00BF00BF00221146E8
:105EC0004320FFF76FF94320FFF758F906B010BDE4
:105ED000303802400000024070B504460125E079E8
:105EE000022801D0FEF778FD2946D4F8E00402F03C
:105EF000DBFCD4F8E00402F081FC70BD10B5044670
:105F0000D4F8E00402F0B1FC10BD10B50446D4F89A
:105F1000E00402F0B5FC10BD70B504460D4600BFAC
:105F200094F89404012801D1022070BD012084F866
:105F3000940400BF65742946206803F05BFF00BF2E
:105F4000002084F8940400BF00BFEEE710B50446BB
:105F500004F29C41D4F8E00402F0BDFC10BD70B521
:105F60000446256800BF94F89404012801D102205A
:105F700070BD012084F8940400BFE86800F0400080
:105F800030B1607B012803D1A86B40F48030A86356
:105F9000206803F01BFE206803F0D6F900BF002044
:105FA00084F8940400BF00BFE2E7000010B5044687
:105FB000D4F8E00402F0ECFC2068D0F8000E40F0C9
:105FC00001002168C1F8000EE07A28B1034800689A
:105FD00040F006000149086010BD000010ED00E02F
:105FE00070B504460D460CB9012070BD58480068D4
:105FF00000F00700A84209D255490D700846006814
:1060000000F00700A84201D00120EEE7207800F060
:10601000020002281DD1207800F00400042805D1D8
:106020004C48006840F4E0504A490860207800F08D
:106030000800082805D14748006840F460404549F9
:1060400008604448006820F0F000A1680843414916
:106050000860207800F00100A8B36068012807D12B
:106060003C4808380068C0F34040B8B90120BCE79C
:106070006068022802D06068032807D135480838D4
:106080000068C0F3406048B90120AEE731480838E5
:106090000068C0F3400008B90120A6E72D48006859
:1060A00020F00300616808432A490860FEF7ECFF0E
:1060B000064609E0FEF7E8FF801B41F2883188427E
:1060C00002D9032091E707E02248006800F00C00A5
:1060D0006168B0EB810FEDD11D48006800F007004A
:1060E000A84209D91A490D700846006800F0070057
:1060F000A84201D0012078E7207800F004000428AD
:1061000007D11448006820F4E050E16808431149C1
:106110000860207800F00800082808D10D480068C1
:1061200020F46040216940EAC1000A49086000F09B
:10613000EFF808490968C1F30311074A515CC840E8
:106140000649086006480068FEF7CEFF00204CE7CD
:10615000003C024008380240FA9F00088C000020F2
:106160008400002010B5FEF78FFF044657480068F2
:1061700040F001005549086006E0FEF785FF001B6E
:10618000022801D9032010BD5048006800F0020029
:106190000028F2D04D48006840F080004B4908606C
:1061A000FEF772FF0446002048490831086008E005
:1061B000FEF76AFF001B41F28831884201D90320B3
:1061C000E1E742480830006800F00C000028EFD1F9
:1061D000FEF75AFF04463D48006820F450203B4932
:1061E000086006E0FEF750FF001B642801D9032079
:1061F000C9E73648006800F400300028F2D1FEF705
:1062000043FF04463148006820F080702F49086041
:1062100006E0FEF739FF001B022801D90320B2E790
:106220002A48006800F000700028F2D1FEF72CFF29
:1062300004462648006820F080602449086006E093
:10624000FEF722FF001B022801D903209BE71F480D
:10625000006800F000600028F2D11D481B49091DAC
:1062600008601C4819498431086018480C300068DF
:1062700020F4F85015490C3108600846006820F4F5
:10628000005008600846006840F41F000860084697
:10629000006840F4001008600C487430006820F07A
:1062A00001000A49743108600846006840F08070B7
:1062B000086009480949086009480068FEF714FFAA
:1062C00008B101205FE700205DE7000000380240D0
:1062D00010300004103000200024F4008C00002056
:1062E0008400002001480068704700008C000020F6
:1062F00000B5FFF7F7FF04490968C1F34231034ACB
:10630000515CC84000BD0000083802400AA00008E7
:106310002DE9F047002400250026A1462548006805
:1063200000F00C0020B1042805D008283AD105E07F
:10633000DFF8849039E0DFF8849036E01D48001FD4
:10634000006800F03F041B48001F006800F4800054
:1063500078B11A481749091F0968C1F38811A0FBD1
:1063600001700146224600233846FDF785FF0546A9
:106370000EE011480F49091F0968C1F38811A0FBFD
:1063800001700146224600233846FDF775FF054699
:106390000848001F0068C0F30140401C4600B5FBE0
:1063A000F6F902E0DFF8109000BF00BF4846BDE8F4
:1063B000F0870000083802400024F40040787D0196
:1063C000F8B504460CB90120F8BD207800F00100B2
:1063D000002874D0F948006800F00C0004280DD0A3
:1063E000F648006800F00C00082813D1F348001F9D
:1063F000006800F48000B0F5800F0BD1EF4808383A
:106400000068C0F34040002859D06068002856D189
:106410000120D9E700BF6068B0F5803F08D1E748A8
:106420000838006840F48030E449083908601EE00C
:106430006068B0F5A02F0DD1E0480838006840F43E
:106440008020DE49083908600846006840F4803042
:1064500008600CE0D9480838006820F48030D7493B
:10646000083908600846006820F48020086000BFF2
:10647000606890B1FEF708FE054606E0FEF704FEF0
:10648000401B642801D903209EE7CC4808380068E7
:10649000C0F340400028F1D011E0FEF7F5FD0546BD
:1064A00006E0FEF7F1FD401B642801D903208BE7CD
:1064B000C24808380068C0F340400028F1D1207875
:1064C00000F0020002285FD1BC48006800F00C0018
:1064D00058B1BA48006800F00C0008281CD1B74831
:1064E000001F006800F48000B0B9B44808380068A4
:1064F000C0F3400020B1E068012801D0012063E72B
:10650000AE480838006820F0F800216940EAC10070
:10651000AA490839086037E0E06800B30120A849BB
:106520000860FEF7B1FD054606E0FEF7ADFD401B35
:10653000022801D9032047E7A04808380068C0F3C3
:1065400040000028F1D09D480838006820F0F8008D
:10655000216940EAC10099490839086014E0002027
:1065600097490860FEF790FD054606E0FEF78CFDB2
:10657000401B022801D9032026E79048083800680C
:10658000C0F340000028F1D1207800F0080008286E
:106590002CD16069A8B101208A490860FEF774FD1A
:1065A000054606E0FEF770FD401B022801D90320D6
:1065B0000AE782486C300068C0F340000028F1D040
:1065C00014E000207F490860FEF75EFD054606E006
:1065D000FEF75AFD401B022801D90320F4E6774854
:1065E0006C300068C0F340000028F1D1207800F042
:1065F0000400042870D1002770483830006800F08B
:10660000805090B900BF002000906C48383000687E
:1066100040F080506949383108600846006800F051
:106620008050009000BF00BF01276748006800F459
:106630008070B0B96448006840F4807062490860B6
:10664000FEF722FD054606E0FEF71EFD401B022870
:1066500001D90320B8E65C48006800F48070002887
:10666000F2D000BFA068012808D154486830006803
:1066700040F001005149683108601DE0A06805281C
:106680000DD14E486830006840F004004B49683135
:1066900008600846006840F0010008600CE04748C8
:1066A0006830006820F001004449683108600846FD
:1066B000006820F00400086000BFA068A8B1FEF7E1
:1066C000E3FC054609E0FEF7DFFC401B41F28831A0
:1066D000884202D9032077E626E03848683000680F
:1066E000C0F340000028EED013E0FEF7CDFC0546D5
:1066F00008E0FEF7C9FC401B41F28831884201D90D
:10670000032061E62D4868300068C0F3400000288F
:10671000EFD1012F07D129483830006820F0805090
:1067200026493831086000BFA069002845D02348B9
:10673000006800F00C0008285DD0A069022845D14F
:1067400000201F490866FEF79FFC054606E0FEF79D
:106750009BFC401B022801D9032035E61748083866
:106760000068C0F340600028F1D1D4E90701084374
:10677000616A40EA81110122A06AC2EB500041EA3D
:1067800000412C20005D41EA00600C49091F0860AF
:1067900001200B490866FEF777FC054606E0FEF788
:1067A00073FC401B022801D903200DE6034808387A
:1067B0000068C0F340600028F1D049E0083802408A
:1067C00000004742800E47420070004000202149EF
:1067D0000866FEF759FC054606E0FEF755FC401B2F
:1067E000022801D90320EFE51B480068C0F3406090
:1067F0000028F2D12CE0A069012800D1E4E5164878
:10680000001D0668A069012820D006F48001E06917
:1068100081421BD106F03F01206A814216D147F622
:10682000C0703040616AB0EB811F0FD106F4403177
:106830000122A06AC2EB5000B1EB004F06D106F076
:1068400070612C20005DB1EB006F01D00120BBE531
:106850000020B9E5000047420038024070B5044608
:106860002546681EB0F1807F01D301200FE0681E2D
:106870004FF0E02148610F214FF0FF3003F078FB2B
:1068800000204FF0E021886107200861002070BDE2
:1068900030B502460B4600BF92F83C00012801D1FA
:1068A000022030BD012082F83C0000BF022082F8A7
:1068B0003D00106844681068816824F0700418680E
:1068C000044310684460144D1068A84213D0106847
:1068D000B0F1804F0FD0114D1068A8420BD0104D71
:1068E0001068A84207D00F4D1068A84203D00E4D83
:1068F0001068A84205D121F0800158680143106852
:106900008160012082F83D0000BF002082F83C0039
:1069100000BF00BFC5E700000000014000040040C8
:1069200000080040000C00400040014010B5044643
:106930000CB9012010BD94F83D0028B9002084F85E
:106940003C00204600F026F8022084F83D00211D7E
:10695000206800F015FE012084F8460000BF84F88E
:106960003E0001213F2001554020015541200155A5
:1069700000BF00BF012084F842004320015544209D
:1069800001554520015500BF012084F83D0000203D
:10699000D0E7000038B504461B492068884231D151
:1069A00000BF002000901948006840F0010017491E
:1069B00008600846006800F00100009000BF00BFBA
:1069C0001348144908604FF04060486000211148A6
:1069D0008160C1604FF480610161490041618900BB
:1069E00081614911C1614FF440310162002141626E
:1069F000FEF78CF908B1FDF7EFFF00BF05482062F4
:106A0000846300BF38BD00000000014044380240EC
:106A10008864024068010020014691F83D00012889
:106A200001D001207047022081F83D00164B086814
:106A3000984213D00868B0F1804F0FD0134B08680C
:106A400098420BD0124B0868984207D0114B086847
:106A5000984203D0104B086898420CD108688068AF
:106A600000F00702062A0CD00868006840F0010018
:106A70000B68186005E00868006840F001000B68CA
:106A800018600020CEE70000000001400004004034
:106A900000080040000C004000400140014600BFDB
:106AA0000868006A41F21112104050B90868006A83
:106AB0009210104028B90868006820F001000A68A8
:106AC000106000BF012081F83D00002070472DE9D3
:106AD000F04104460D46002700BF94F83C00012811
:106AE00002D10220BDE8F081012084F83C0000BF03
:106AF000022084F83D002068866826F0770626F498
:106B00007F46206886602868502833D00CDC202817
:106B100050D004DC00284BD0102851D149E0302857
:106B200049D040284CD139E060282DD0702807D0BA
:106B3000B0F5805F03D0B0F5005F41D10DE041E0DA
:106B4000D5E902136A68206800F070FD2068866845
:106B500046F077062068866034E0D5E902136A685B
:106B6000206800F063FD2068806840F48040216860
:106B7000886027E0EA686968206800F06BFD5021B2
:106B8000206800F05EFD1DE0EA686968206800F09A
:106B900074FD6021206800F054FD13E0EA68696824
:106BA000206800F057FD4021206800F04AFD09E010
:106BB00000BF00BF00BF2968206800F042FD01E06F
:106BC000012700BF00BF012084F83D0000BF002066
:106BD00084F83C0000BF384684E770B5044614B919
:106BE000FDF7A8FE70BDFDF7A5FEFDF7E9FDFDF779
:106BF00041FD204600F0A8F80546FDF7F1FDFDF740
:106C00003FFE18B1FDF796FE00F092F800BFE9E7ED
:106C100000BFFEE730B50B46002100BF16E00A2496
:106C2000B4EB107F05D9302404EB107403F8114045
:106C300005E0412404EB10740A3C03F81140000104
:106C400000254C00641C1D554C1CE1B29142E6DB52
:106C500030BD00002DE9F04781460F46164600245E
:106C60000025AA222146641C2F4842545522214661
:106C7000641C4254381D1FFA80FA2146641C2A48BD
:106C800000F801A04FEA1A222146641C4254A01EBB
:106C90002549085C4540601E085C45402146641C4F
:106CA00021484654C6F307222146641C4254C6F3C9
:106CB00007422146641C4254310E2246641C815412
:106CC000201F1949085C4540E01E085C4540A01E95
:106CD000085C4540601E085C45404FF000080CE031
:106CE00039F81810C8B22146621C94B20E4A5054AA
:106CF000454008F101001FFA80F8B845F0DB204656
:106D0000611C8CB208490D5421460748FDF708FC68
:106D100038B106480068401C044908600020BDE8FE
:106D2000F0870120FBE70000B821002014000020BC
:106D300000200149087070471800002001480078C1
:106D400070470000180000200146022901D10448C4
:106D50007047032902D142F21070F9E70148F7E7C2
:106D600040420F0020A1070010B54FF40061084811
:106D7000FDF7F9FA20210748FDF7F5FA002006494A
:106D8000087006490860064908600649087010BD89
:106D9000B8210020B82900200C000020100000209D
:106DA000140000201800002070B504460D46012D87
:106DB00004D12078312801D1012070BD012D04D1EA
:106DC0002078322801D10220F7E7012D04D1207864
:106DD000332801D10320F0E7012D04D12078342895
:106DE00001D10420E9E71AA22946204600F092F8D2
:106DF00008B10120E1E718A22946204600F08AF8F0
:106E000008B10220D9E716A22946204600F082F8F0
:106E100058B915A22946204600F07CF828B913A2DB
:106E20002946204600F076F808B10320C5E711A2F4
:106E30002946204600F06EF828B90FA229462046C0
:106E400000F068F808B10420B7E70020B5E70000BB
:106E5000737461727400000073746F70000000003E
:106E60006869676800000000316D00006661737436
:106E7000000000006C6F770031306B0070B5054684
:106E80000A2D01D00D2D2BD11E48007820B31D48AE
:106E900001781D48FFF788FF0446012C05D11B49E6
:106EA000087000201A49086016E0022C03D1002067
:106EB0001649087010E0032C06D10220134908700F
:106EC00000201349086007E0042C05D103200F4976
:106ED000087000200E49086000200A49087070BD43
:106EE000084800781F2808D2064801780078401C1E
:106EF000044A10700448455402E00020014908701B
:106F000000BFECE70C000020B8290020180000208A
:106F1000100000202DE9F04780460D461646002758
:106F200001E0781CC7B2F05D0028FAD1BD4201D063
:106F3000BDE8F08700240DE018F8040000F00EF81A
:106F40008146305D00F00AF8814501D00020EFE76E
:106F5000601CC4B2AC42EFDB0120E9E701464129E5
:106F600005DB5A2903DC01F12000C0B27047084656
:106F7000FCE700002DE9F04706460F4606B117B9B9
:106F80000020BDE8F0871648007808B90020F8E72F
:106F900014490868411C134A116005464FF0000867
:106FA0003C4618E0B4F5FF6F02D340F2F77000E002
:106FB0002046814606EB48002A464946FFF74AFE2E
:106FC00008B90020DDE708EB09001FFA80F8A4EB00
:106FD000090084B200BF002CE4D10120D1E70000F9
:106FE000180000201000002008B500BF002000900D
:106FF0000A48006840F480000849086008460068B4
:1070000000F48000009000BF00BF00221146442021
:10701000FEF7C8F84420FEF7B1F808BD303802404A
:1070200000B587B0142102A8FDF7BFF900BF00200A
:1070300001902348006840F0040021490860084698
:10704000006800F00400019000BF00BF00BF0020F6
:1070500001900846006840F080000860084600681B
:1070600000F08000019000BF00BF00BF0020019031
:107070000846006840F0010008600846006800F01B
:107080000100019000BF00BFFF200290002003908C
:10709000049002A90B48FDF70DFF4FF40050029039
:1070A0000120039000200490059002A90648FDF7F6
:1070B00001FF012251030448FDF7E0FF07B000BDC6
:1070C00030380240000002400008024000B587B09E
:1070D00000200390049005900690019002901448BF
:1070E0001449086000204860002112488160BF21D7
:1070F000C1600021016141618161FFF717FC08B1A6
:10710000FDF76AFC4FF48050039003A90948FFF78C
:10711000DEFC08B1FDF760FC00200190029001A99F
:107120000448FFF7B5FB08B1FDF756FC07B000BDFA
:10713000000001402001002010B500220D490E483A
:1071400001F025F908B1FDF747FC0C490A4801F0A8
:1071500060FC08B1FDF740FC0949074800F01EFD3E
:1071600008B1FDF739FC044801F056FD08B1FDF700
:1071700033FC10BD1C000020D8290020A0000020F6
:107180006C00002010B5FFF7D9FD044610480078C8
:10719000844207D02046FFF720FDFFF7CFFD0446CD
:1071A0000B48047014B100F061F903E0FDF702FC34
:1071B000FDF7EEFBFDF7CCFA40B1FDF7BBFBFDF7A9
:1071C00059FAFFF7B5FD00200149087010BD000015
:1071D0000000002000BFFEE700BFFEE710B5024838
:1071E000FEF7FFF910BD0000B43E002010B50446C4
:1071F0002046FFF743FE10BD2DE9F04704460D463B
:1072000026683746D6F8408007F5306000EB451019
:10721000D0F80890104880450BD909F40040B0F52B
:10722000004F06D14FF4004107F5306000EB4510E8
:1072300081602046FEF78AFE0748804508D9A0797C
:10724000012805D104F29C420121206802F09CF93A
:107250000020BDE8F08700000A30544F2DE9F047C8
:1072600005460C46D5F800904E46D9F840A006F5E4
:10727000306000EB4410D0F80880A879012855D17F
:1072800008F0080008280FD1434882450BD908F4BC
:107290000040B0F5004F7BD14FF4004106F530605F
:1072A00000EB4410816073E008F02000202806D134
:1072B000202106F5306000EB4410816068E008F0A2
:1072C0002800002864D1344882450CD908F40040D5
:1072D000B0F5004F07D14FF4004106F5306000EBE8
:1072E0004410816054E004EBC40105F5157000EB17
:1072F000810706F5306000EB4410396A0069C0F37D
:107300001200081A786164B9386930B905F29C42F4
:107310000121286802F038F903E07969F868084427
:10732000F860E1B22846FDF7D3FF31E01B48824503
:107330001BD108F40040B0F5004F07D14FF40041D5
:1073400006F5306000EB4410816021E008F0200079
:10735000202805D1202106F5306000EB4410816023
:10736000E1B22846FDF7B4FF12E06CB904EBC401AA
:1073700005F5157000EB8100006928B905F29C4203
:107380000021286802F000F9E1B22846FDF7A0FFCD
:107390000020BDE8F08700000A30544F0A31544FF6
:1073A0002DE9F84F07460E46D7F80090C84606EB81
:1073B000C60107F1140000EB8104D4E904108842EF
:1073C00002D90120BDE8F88FD4E90401451AA0686C
:1073D000A84200D2A568E81C4FEA900A17E0D4E959
:1073E0000401451AA068A84200D2A568E81C4FEA2B
:1073F000900AB879ABB2F2B200904846E16802F068
:107400008BFDE0682844E06060692844606108F50D
:10741000106000EB4610806980B2504506D3D4E975
:107420000410884202D220690028D8D1D4E904018E
:1074300088420ED806F00F01012000FA01FB40F649
:10744000340050F8080020EA0B0040F6340141F8FF
:1074500008000020B6E77047704730B501460A467D
:107460001378521C147843EA042030BD2DE9F04112
:10747000FDF73EF905460DB9BDE8F081FDF73CF991
:107480004608FDF797FA0746FDF782FA044604E03E
:107490007F1E31462846FFF76DFD002FF8D105E02D
:1074A000641E05EB46003146FFF764FD002CF7D162
:1074B00000BFE1E710B5FDF7EDFD10BD00B593B0DD
:1074C000302107A8FCF771FF142102A8FCF76DFF1B
:1074D00000BF002001902348006840F080502149FF
:1074E00008600846006800F08050019000BF00BFAF
:1074F00000BF002001901C48006840F440401A4939
:1075000008600846006800F44040019000BF00BFDA
:10751000012007900004089002200D9041050E9173
:1075200019210F91C0211091022111910421129172
:1075300007A8FEF745FF08B1FDF74EFA0F200290AD
:1075400002200390002004904FF48050059000200A
:107550000690032102A8FEF743FD08B1FDF73CFAAF
:1075600013B000BD4038024000700040034800687E
:1075700040F47000014908607047000088ED00E0A9
:1075800010B50268224B98420BD0B0F1804F08D062
:10759000204B984205D0204B984202D01F4B984276
:1075A00003D122F070024B681A43194B984214D051
:1075B000B0F1804F11D0174B98420ED0164B984225
:1075C0000BD0164B984208D0154B984205D0154B5E
:1075D000984202D0144B984203D122F44072CB68F7
:1075E0001A4322F080034C6943EA04028B68C362A9
:1075F0000B688362064B984201D10B6903630368F1
:1076000043F00403036001234361026010BD0000E6
:10761000000001400004004000080040000C004051
:1076200000400140004401400048014030B50C4694
:10763000816821F47F4142EA032525432943816083
:1076400030BD0A46816821F0700142F007031943FA
:107650008160704730B50B461446026A056A25F012
:1076600001050562816921F0F00141EA041122F06F
:107670000A021A438161026230BD30B50B461446DE
:10768000026A056A25F010050562816921F47041DE
:1076900041EA043122F0A00242EA0312816102624F
:1076A00030BD2DE9F04104460D46D4F8C87204F50A
:1076B0003070D4F8D41250F8210010B90320BDE87E
:1076C000F08104F53070D4F8D41250F8216005F040
:1076D0000F0000EB800104F1140050F8210028B3E2
:1076E00005F00F0000EB800104F1140050F82110A8
:1076F00005F00F0000EBC00207F1140000EB820060
:107700008068B1FBF0F200FB121078B9002105F09F
:107710000F0000EB800204F1140040F82210002357
:107720001A462946204601F041F917E00020C6F824
:10773000140204F53170D4F8D41250F82100006915
:1077400060B1D6F8080204F53171D4F8D42251F8AA
:1077500022102A460B6906F5047198470020AEE70F
:1077600070B504460E4604F53070D4F8D41250F8C3
:107770002150D4F8D41250F8210008B9032070BD6C
:107780003146204600F069FFC5F80C02D5F8040226
:1077900004F53171D4F8D43251F82310CA6805F5D4
:1077A000037190470020EAE770B504460D46304863
:1077B0000178204600F01BFE00212D48007800F0E3
:1077C0000F0000EB800204F1140000EB8200C17393
:1077D00028480178204600F00AFE0021254800785C
:1077E00000F00F0000EB800204F5AA7000EB8200AD
:1077F000C17321480178204600F0F9FD00211E48A0
:10780000007800F00F0000EB800204F1140000EBA0
:107810008200C1731848007800F00F0000EB80026E
:1078200004F1140000EB8200816004F53070D4F89C
:10783000D41250F82100C8B104F53171D4F8D42223
:1078400051F822104868804704F53071D4F8D422EA
:1078500051F8220001F0D6FB002104F53070D4F875
:10786000D42240F822100020C4F8BC02002070BDD1
:107870001B0100201C0100201D01002070B50446E2
:1078800004F53070D4F8D41250F821500DB903200B
:1078900070BD04F53170D4F8D41250F8210098B1BD
:1078A00095F80002FF280FD095F8012295F8000204
:1078B00004F53171D4F8D46251F826108B6829464A
:1078C0009847FF2085F800020020E1E701460A20E2
:1078D0000880014870470000940000202DE9F04125
:1078E000044682210D4800F09EFC054601210B480C
:1078F00000F099FC06468121084800F094FC0746F8
:107900000DB11020A8710EB14020B0800FB1402001
:10791000B880432020800148BDE8F081D8000020D5
:107920002DE9F041044682210E4800F07CFC05461A
:1079300001210C4800F077FC06468121094800F03F
:1079400072FC07460DB11020A87116B14FF40070FB
:10795000B08017B14FF40070B880432020800148F8
:10796000BDE8F081D80000202DE9F04104468221D5
:107970000D4800F058FC054601210B4800F053FC6F
:1079800006468121084800F04EFC07460DB1102044
:10799000A8710EB14020B0800FB14020B8804320C4
:1079A00020800148BDE8F081D800002070B5044671
:1079B0000E464FF4077001F027FB054645B900213C
:1079C00004F53070D4F8D42240F82210022070BDA3
:1079D0004FF407712846FCF7E8FC04F53070D4F842
:1079E000D41240F82150D4F8D41250F82100C4F831
:1079F000BC02207C98BB4FF40073022250480178EF
:107A0000204600F0CBFE01214D48007800F00F0029
:107A100000EB800204F1140000EB8200C1734B0202
:107A2000022248480178204600F0B8FE012145486E
:107A3000007800F00F0000EB800204F5AA7000EB64
:107A40008200C17310214048007800F00F0000EB65
:107A5000800204F1140000EB8200816032E0FFE755
:107A60004023022236480178204600F097FE01218B
:107A70003348007800F00F0000EB800204F114009E
:107A800000EB8200C173402302222E480178204679
:107A900000F084FE01212B48007800F00F0000EB7D
:107AA000800204F5AA7000EB8200C1731021264801
:107AB000007800F00F0000EB800204F1140000EBEE
:107AC00082008160082303221F480178204600F0CD
:107AD00065FE01211C48007800F00F0000EB8002D9
:107AE00004F1140000EB8200C1730020C5F8040209
:107AF00004F53171D4F8D42251F822100868804777
:107B00000020C5F81402C5F81802D5F8040208B917
:107B100002205CE7207C48B94FF4007309480178E3
:107B20002046D5F8042200F051FE07E04023054826
:107B300001782046D5F8042200F048FE002046E7F0
:107B40001B0100201C0100201D01002070B504460F
:107B500004F53070D4F8D41250F82150D4F8D4126F
:107B600050F8210008B9032070BD207C48B94FF4BB
:107B70000073094801782046D5F8042200F026FE5B
:107B800007E04023044801782046D5F8042200F09D
:107B90001DFE0020E8E700001C010020024609B994
:107BA0000320704702F53170D2F8D43240F8231028
:107BB0000020F6E710B5024602F53070D2F8D44244
:107BC00050F824300BB9032010BDC3F80412002074
:107BD000FAE730B503460C4603F53070D3F8D452BB
:107BE00050F8251009B9032030BDC1F80842C1F88A
:107BF00010220020F8E72DE9FC4105460C4605F56A
:107C00003070D5F8D41250F8216000200190009017
:107C1000804616B90320BDE8FC81207800F06000A2
:107C200000283DD020287CD1E08868B3207800F07F
:107C30008000B8B1E288607805F53171D5F8D4C21A
:107C400051F82C108B6831469847E088072801D9F5
:107C5000072000E0E08807463A463146284600F013
:107C600012F91CE0607886F80002E088402801D212
:107C7000E08800E0402086F8010296F801223146B3
:107C8000284600F0DCF80AE0607805F53171D5F897
:107C9000D42251F8221000228B682146984747E0F1
:107CA000607830B1012832D00A2813D00B282FD1A8
:107CB00021E095F89C02032805D102226946284656
:107CC00000F0E1F805E02146284600F0ACF84FF05E
:107CD000030824E095F89C02032805D1012201A99C
:107CE000284600F0D0F805E02146284600F09BF831
:107CF0004FF0030813E095F89C02032805D02146B5
:107D0000284600F090F84FF0030808E009E006E08C
:107D10002146284600F087F84FF0030800BF00BF57
:107D200006E02146284600F07EF84FF0030800BF29
:107D300000BF40466FE7000070B5054605F530709E
:107D4000D5F8D41250F8214001260CB9032070BD9B
:107D5000D4F81402C0B90120C4F814020B4800780A
:107D600000F00F0000EB800205F11400D4F81012AF
:107D700040F82210054801782846D4F81032D4F88B
:107D8000082200F013FE00263046E0E71B01002029
:107D900070B504460D460026D4F8B802294642685C
:107DA0002046904700B10326304670BD70B50446AA
:107DB0000D4694F89C02012804D0022803D0032821
:107DC0000CD101E000BF00BF6888012805D1002068
:107DD000C4F8A402204600F068F804E029462046D2
:107DE00000F021F800BF00BF70BD024600207047C0
:107DF00002460020704770B506460C4615462B46D5
:107E000022460021304600F0E1FC002070BD70B534
:107E100006460C4615462B4622460021304600F009
:107E2000C5FD002070BD70B504460D46802120467A
:107E300000F08CFD0021204600F088FD70BD70B57B
:107E400004460E4615460320C4F89402C4F8545163
:107E50004FF4B27006514FF4AC7005512B463246C8
:107E60000021204600F0B2FC002070BD10B5044691
:107E70000520C4F8940200231A461946204600F053
:107E8000A5FC002010BD70B504460E461546022024
:107E9000C4F8940265616662A5612B4632460021F2
:107EA000204600F083FD002070BD10B5044604207C
:107EB000C4F8940200231A461946204600F076FDC5
:107EC000002010BD70B505460C462DB92246064966
:107ED00006A000F012FA04E02246034903A000F0D5
:107EE0000CFA014870BD0000B42C0020434443202C
:107EF000436F6E66696700000246122008800148E1
:107F0000704700003800002070B505460C462DB9BA
:107F10002246064906A000F0F0F904E02246034993
:107F200003A000F0EAF9014870BD0000B42C002065
:107F300043444320496E74657266616365000000C6
:107F40000246042008800148704700004C000020D1
:107F500070B505460C462246024903A000F0CDF953
:107F6000004870BDB42C002053544D6963726F6596
:107F70006C656374726F6E696373000070B505465B
:107F80000C462DB92246064906A000F0B6F904E0D9
:107F90002246034903A000F0B0F9014870BD00007B
:107FA000B42C002053544D333220566972747561DD
:107FB0006C20436F6D506F727400000070B5054601
:107FC0000C461A202080FCF709FD014870BD000016
:107FD0005000002070B504460D46E888012804D002
:107FE00029462046FFF71FFF1EE094F89C02012857
:107FF00004D0022803D0032810D109E000BF0020DC
:10800000A060012204F108012046FFF73CFF0AE0CE
:108010000122211D2046FFF736FF04E029462046B5
:10802000FFF701FF00BF00BF70BDF8B504460E4664
:10803000002000900027002570880012082875D2C3
:10804000DFE800F0C7040C20C7C7A5B5207CD4F832
:10805000B4120A68694690470746C1E0207C40B9DF
:10806000D4F8B802816A68468847074602207870CB
:1080700007E0D4F8B802C16A68468847074602207C
:108080007870ADE0B078062878D2DFE800F003160B
:10809000293C5063D4F8B402406838B1207CD4F84D
:1080A000B4124A6869469047074605E031462046C3
:1080B000FFF7B9FE681CC5B267E0D4F8B402806867
:1080C00038B1207CD4F8B4128A68694690470746D4
:1080D00005E031462046FFF7A6FE681CC5B254E015
:1080E000D4F8B402C06838B1207CD4F8B412CA689D
:1080F00069469047074605E031462046FFF793FE64
:10810000681CC5B241E0D4F8B402006938B1207CE3
:10811000D4F8B4120A6969469047074605E031462B
:108120002046FFF780FE681CC5B22EE051E0D4F86F
:10813000B402406938B1207CD4F8B4124A69694667
:108140009047074605E031462046FFF76CFE681C65
:10815000C5B21AE0D4F8B402806940B1207CD4F8EA
:10816000B4128A6969469047074606E006E0314640
:108170002046FFF758FE681CC5B206E0314620468F
:10818000FFF751FE681CC5B200BF00BF28E0207C8D
:1081900030B9D4F8B802416B68468847074605E015
:1081A00031462046FFF73FFE681CC5B218E0207C30
:1081B00040B9D4F8B802016B6846884707460720E3
:1081C000787005E031462046FFF72DFE681CC5B2E9
:1081D00006E031462046FFF726FE681CC5B200BF08
:1081E00000BF05B1F8BDF088C0B1BDF8000080B196
:1081F000F088BDF80010884202DDBDF8000000E004
:10820000F0880090BDF8002039462046FFF73BFE7D
:1082100007E031462046FFF706FE02E02046FFF762
:1082200044FE00BFDEE72DE9F84105460F462C4627
:108230002E464FF0000870883178884218DD30787B
:1082400000900FE06946204600F020F80446607870
:10825000052807D1A04698F80200B84200D106E0F0
:108260004FF000087088BDF800108842EADC00BFBB
:108270004046BDE8F881014600200A4602E0431C62
:10828000D8B2521C1378002BF9D1704710B50246B2
:1082900010460B88047823440B800378981810BD8F
:1082A00070B504460D4694F89C02012804D00228BB
:1082B00003D003281AD101E000BF00BFE8880228DC
:1082C00004D029462046FFF7AEFD14E00120E0600F
:1082D000D4F8A40218B1E06840F00200E060022285
:1082E00004F10C012046FFF7CEFD04E029462046AC
:1082F000FFF799FD00BF00BF70BD2DE9F0410746B3
:108300000D46904600240FB9BDE8F0813E46304648
:10831000FFF7B1FF022101EB4000B0F5007F01D96A
:10832000080204E03046FFF7A6FF4000801CA8F8D2
:10833000000098F800002855601CC4B2032028559E
:10834000601CC4B208E030782855761C601CC4B2AA
:1083500000202855601CC4B230780028F3D100BF3B
:10836000D2E70146002031B1012906D0022906D00A
:10837000032908D105E0002007E0032005E00120E3
:1083800003E0032001E0032000BF00BF70472DE998
:10839000F04104460D46164614B90320BDE8F081AD
:1083A0000020C4F8B802C4F8C402C4F8D0020DB169
:1083B000C4F8B452012084F89C022670204600F0D4
:1083C00055F907463846E9E72DE9F04104460D46E0
:1083D000002600272946D4F8C802FCF7E6FF064627
:1083E0003046FFF7BEFF07463846BDE8F0812DE96D
:1083F000F04104460D46002600272946D4F8C8025D
:10840000FCF79EFF06463046FFF7ABFF07463846AF
:10841000BDE8F0812DE9F04705460F469146002F53
:108420005AD105F11404D5F8940202284AD1A18941
:108430006068884213D9A1896068401A6060A18988
:10844000206908442061284662682169FFF7DFFC43
:1084500000231A461946284600F0B8F932E0A089F0
:108460006168884217D1A1892068884213D32068A7
:10847000D5F8981288420ED2002211462846FFF7FE
:10848000C6FC0020C5F8980200231A461946284663
:1084900000F09CF916E095F89C0203280BD1D5F862
:1084A000B802C06838B10020C5F8D402D5F8B802C7
:1084B000C168284688478021284600F047FA2846A8
:1084C000FFF7D4FC95F8A00250B3284600F0C5FA97
:1084D000002085F8A00223E047F080012846FFF73E
:1084E00084FC0646FF2E1BD0D6B995F89C020328C3
:1084F00016D105F52E7050F82600406980B1C5F8F8
:10850000D46205F52E7050F8260039464269284697
:1085100090478046B8F1000F02D04046BDE8F08792
:108520000020FBE72DE9F04705460F4691464FF046
:108530000008002F55D105F5AA76D5F89402032836
:1085400073D1B1897068884214D9B1897068401AB2
:108550007060B189306908443061B38970689842AD
:1085600001D9706800E0B089024628463169FFF7FA
:1085700042FC5AE095F8AA0200F01F0020B1012841
:1085800004D0022812D109E0002411E040F2AE200C
:10859000415D2846FFF72CFC044609E040F2AE207E
:1085A000415D2846FFF721FC044601E0002400BF9E
:1085B00000BF94B995F89C0203280ED105F52E70E2
:1085C00050F82400006940B1C5F8D44205F52E707A
:1085D00050F824000169284688472846FFF765FCC3
:1085E00023E007F07F012846FFF7FFFB0446FF2C3E
:1085F0001BD0D4B995F89C02032810D105F52E7034
:1086000050F82400806950B1C5F8D44205F52E70A9
:1086100050F8240039468269284690478046B8F1D0
:10862000000F02D04046BDE8F0870020FBE701467E
:108630000020704770B504460025012084F89C0294
:10864000D4F8B80238B12179D4F8B802426820468B
:10865000904700B10325284670BD70B504460D460D
:108660002946D4F8C802FCF7DEFE70BD10B50446FA
:10867000207800282AD11648C0F8E044C4F8C8027F
:108680004FF0A040124908600420087102211048F0
:10869000C171002181710221417200218172C17278
:1086A00001738173C173FDF713FB08B1FCF794F9F3
:1086B00080210748FCF7C9FD402200210448FCF74F
:1086C000C9FD802201210248FCF7C4FD002010BD35
:1086D000B43E002010B50246D2F8C83201F0800046
:1086E000802809D101F07F0000EBC00403F11400E1
:1086F00000EB8400807810BD01F07F0000EBC00427
:1087000003F5157000EB84008078F4E770B504463B
:108710000D4604F52E70D4F8D41250F8210008B993
:10872000032070BD94F89C02032811D104F52E702B
:10873000D4F8D41250F82100006A48B104F52E7024
:10874000D4F8D41250F821002946026A20469047F6
:108750000020E6E770B504460D4604F52E70D4F807
:10876000D41250F8210008B9032070BD94F89C027F
:10877000032811D104F52E70D4F8D41250F821003A
:10878000406A48B104F52E70D4F8D41250F8210094
:108790002946426A204690470020E6E72DE9F04747
:1087A00004460F4615461E464FF00008C1462B46AC
:1087B00032463946D4F8C802FCF740FE80464046AF
:1087C000FFF7CFFD81464846BDE8F0872DE9F04729
:1087D00004460D4616461F464FF00008C1463B466C
:1087E00032462946D4F8C802FCF76FFE8046404660
:1087F000FFF7B7FD81464846BDE8F08770B50446EF
:108800000025012084F89C020020C4F894026060D6
:10881000C4F8A40284F8A002D4F8B80258B1D4F87D
:10882000B802406838B12179D4F8B80242682046CD
:10883000904700B103254023002211462046FFF750
:10884000ADFF012140F2631001554021C01E0153CC
:108850004023002280212046FFF7A0FF0121232092
:10886000015540212184284670BD014691F89C02A3
:10887000042803D191F89D0281F89C0200207047E2
:1088800010B5044694F89C0203280BD1D4F8B80222
:1088900040B1D4F8B802C06920B1D4F8B802C169B7
:1088A00020468847002010BD024611740020704702
:1088B0002DE9F04104460D46002600272946D4F84C
:1088C000C802FDF729FB06463046FFF74AFD07467A
:1088D0003846BDE8F08170B504460D46294604F2DD
:1088E000AA2000F07BF80120C4F894024FF42C7009
:1088F000005BC4F8980294F8AA0200F01F0020B1AF
:10890000012809D0022815D10DE004F2AA21204641
:1089100000F088F9064616E004F2AA21204600F08D
:108920001AFB06460FE004F2AA21204600F0D1F916
:10893000064608E094F8AA0200F08001204600F004
:1089400005F8064600BF00BF304670BD2DE9F04176
:1089500004460D46002600272946D4F8C802FCF735
:10896000D7FD06463046FFF7FCFC07463846BDE813
:10897000F08170B5044600250026D4F8C802FDF742
:10898000EEFA05462846FFF7ECFC0646304670BD79
:10899000014691F89C02042803D091F89C0281F8CA
:1089A0009D02042081F89C02002070472DE9F047C9
:1089B00004460D4616461F464FF00008C1463B468A
:1089C00032462946D4F8C802FCF7E7FD8046404607
:1089D000FFF7C7FC81464846BDE8F08770B50546FD
:1089E0000E46344620782870641C20786870641C19
:1089F0002046FEF732FD6880641C641C2046FEF7AA
:108A00002CFDA880641C641C2046FEF726FDE8802F
:108A100070BD38B504460D46002000900DB9032006
:108A200038BDC4F8B85204F52E70D4F8D41250F8FA
:108A30002100C06A50B104F52E70D4F8D42250F849
:108A40002200C16A68468847C4F8D002D4F8D80228
:108A5000401CC4F8D8020020E2E70146002070471D
:108A600070B504460D46A88810BBE88800BB68882E
:108A700080281DD2A87800F07F0694F89C02032875
:108A800004D129462046FFF7CEF915E084F89E620E
:108A900031462046FFF70CFF2046FFF706FA1EB1CD
:108AA000022084F89C0207E0012084F89C0203E085
:108AB00029462046FFF7B7F970BD70B504460D464C
:108AC0000026D4F8B80230B1D4F8B80229460268BA
:108AD000204690470646304670BD000070B50446FB
:108AE0000E460025B0783D490870084600780128F8
:108AF00005D931462046FFF796F9032070BD94F85A
:108B00009C02022802D0032859D11FE03348007884
:108B1000C0B1324800786060304801782046FFF7E5
:108B2000CCFF05463DB131462046FFF77CF90220D7
:108B300084F89C0209E02046FFF7B7F9032084F887
:108B40009C0202E02046FFF7B0F943E0234800789A
:108B500070B9022084F89C022048007860601F48A9
:108B600001782046FFF714F92046FFF79EF925E02B
:108B70001A490978606888421DD021792046FFF79C
:108B800007F9164800786060144801782046FFF71E
:108B900094FF05465DB131462046FFF744F921793F
:108BA0002046FFF7F5F8022084F89C0206E02046F4
:108BB000FFF77BF902E02046FFF777F90AE031463C
:108BC0002046FFF730F9054801782046FFF7E0F826
:108BD000032500BF00BF284690E70000900000205A
:108BE00070B505460C466088012805D1C5F8A40279
:108BF0002846FFF75AF90EE06088022807D1A088BE
:108C0000001285F8A0022846FFF74FF903E021463D
:108C10002846FFF708F970BD10B504462046FFF757
:108C2000A8FE10BD70B504460D460026287800F059
:108C3000600088B1202802D0402842D100E000BF67
:108C400004F52E70D4F8D41250F821002946826819
:108C500020469047064639E068780A282AD2DFE89D
:108C600000F01A24291F290A0529150F2946204634
:108C7000FFF7DBF923E029462046FFF7F1FE1EE06F
:108C800029462046FFF72AFF064618E029462046D7
:108C9000FFF7A0F913E029462046FFF701FB0EE09D
:108CA00029462046FFF79CFF09E029462046FFF7AA
:108CB0007DF804E029462046FFF7B5F800BF00BF65
:108CC00004E029462046FFF7AEF800BF00BF30465B
:108CD00070BD2DE9F04705460F464FF000093C797D
:108CE000387800F06000F8B1202802D040287DD10B
:108CF00000E000BF21462846FFF777F80646FF2E22
:108D000011D086B9C5F8D46205F52E7050F826004A
:108D1000806840B105F52E7050F82600394682680B
:108D200028469047814612E1787800287AD00128B9
:108D30002FD003286ED195F89C02022802D0032878
:108D400020D110E054B1802C08D021462846FFF7EE
:108D5000FDFD80212846FFF7F9FD03E0394628464E
:108D6000FFF761F813E0788840B93CB1802C05D05A
:108D7000F88818B921462846FFF7E8FD2846FFF78E
:108D800094F804E039462846FFF74DF800BF00BFCD
:108D9000D6E095F89C02022802D003283BD110E0CF
:108DA00054B1802C08D021462846FFF7CFFD802102
:108DB0002846FFF7CBFD03E039462846FFF733F896
:108DC0002EE0788820BB04F07F0018B121462846A9
:108DD000FFF7FAFA2846FFF768F821462846FFF71A
:108DE00004F80646FF2E13D096B900E0AAE0C5F8B5
:108DF000D46205F52E7050F82600806840B105F564
:108E00002E7050F8260039468268284690478146E1
:108E100006E007E08FE039462846FFF704F800BF78
:108E200000BF8DE095F89C02022802D003287BD178
:108E300027E034B1802C04D039462846FEF7F3FFF2
:108E400077E004F08000802808D104F07F0000EB78
:108E5000800105F1140000EB810007E004F07F00C1
:108E600000EB800105F5AA7000EB81008046002030
:108E700088F80E00022208F10E012846FFF703F8D9
:108E800057E004F0800080280ED104F00F0000EBC2
:108E9000800105F1140000EB8100C07B98B93946D0
:108EA0002846FEF7C0FF44E004F00F0000EB80010D
:108EB00005F5AA7000EB8100C07B20B93946284631
:108EC000FEF7B1FF35E004F08000802808D104F0FF
:108ED0007F0000EB800105F1140000EB810007E04A
:108EE00004F07F0000EB800105F5AA7000EB810023
:108EF00080460CB1802C03D1002088F80E000CE0D5
:108F000021462846FFF7E6FB20B1012088F80E0035
:108F100003E009E0002088F80E00022208F10E01AB
:108F20002846FEF7B0FF04E039462846FEF77BFFEF
:108F300000BF00BF04E039462846FEF774FF00BFBB
:108F400000BF04E039462846FEF76DFF00BF00BFB2
:108F50004846BDE8F0872DE9F04105460E4600275A
:108F6000307800F0600030B1202802D0402840D195
:108F700000E000BF00BF95F89C02012804D0022841
:108F800003D003282ED101E000BF00BF30790128B3
:108F900023D831792846FEF72BFF0446FF2C14D046
:108FA0009CB905F52E7050F82400806858B1C5F8BA
:108FB000D44205F52E7050F82400314682682846C8
:108FC0009047074602E0032700E00327F08840B9F6
:108FD0003FB92846FEF769FF03E031462846FEF711
:108FE00022FF04E031462846FEF71DFF00BF00BF08
:108FF00004E031462846FEF716FF00BF00BF3846A2
:10900000BDE8F0817047000001460148704700004C
:109010009843002070B504460B46224619785878CC
:1090200001282CD140F61C0080581D7805F00F0651
:109030000125B540ADB2284340F61C05A85002F505
:10904000106000EB4110006800F40040F0BB18898C
:10905000C0F30A001D7940EA854040EA815040F0A3
:10906000805040F4004002F5106505EB41152D6875
:10907000284302F5106505EB411528602DE040F608
:109080001C0080581D7805F00F060125B540144ED0
:1090900006EA0545284340F61C05A85002F5306055
:1090A00000EB4110006800F4004078B91889C0F363
:1090B0000A001D7940EA854040F0805040F40040AD
:1090C00002F5306505EB41152D6800E005E0284309
:1090D00002F5306505EB41152860002070BD0000E9
:1090E0000000FFFF01460A464FF410608058C30A93
:1090F000DB024FF41060835040F60400805840F4C7
:10910000807340F604008350002070470FB470B5A0
:1091100004469DF81900012818D1A06B20F4803076
:10912000A063E0681B490840E060E06820F440105C
:10913000E0609DF82000012803D1E06840F4801031
:10914000E060204600F028F8054613E0E06840F0B3
:109150004000E060204600F01FF805469DF81D0025
:1091600020B9A06B40F48030A06303E0A06B20F432
:109170008030A0639DF81600012807D1A06840F058
:109180000600A060A06840F02000A060284670BCE7
:109190005DF814FBBFFFBDFF08B50146002000903D
:1091A00000BF0098401C00900098B0F1706F01D98A
:1091B000032008BD086900F000400028F1D00A2013
:1091C000009002E00098401E009000980028F9D11D
:1091D000086940F00100086100BF0098401C009041
:1091E0000098B0F1706F01D90320E2E7086900F040
:1091F00001000028F1D100BFDBE7000070B5044694
:109200000B46224619785878012848D102F510609B
:1092100000EB4110006800F00040B0F1004F17D1A2
:1092200002F5106000EB4110006840F0006502F5A7
:10923000106000EB4110056002F5106000EB41107A
:10924000006840F0804502F5106000EB41100560B9
:1092500040F63C0080581D7805F00F060125B5400A
:10926000ADB2A84340F63C05A85040F61C0080581B
:109270001D7805F00F060125B540ADB2A84340F6B4
:109280001C05A85002F5106000EB411000682B4D42
:10929000284002F5106505EB411528604BE002F50A
:1092A000306000EB4110006800F00040B0F1004F6A
:1092B00017D102F5306000EB4110006840F0006506
:1092C00002F5306000EB4110056002F5306000EB04
:1092D0004110006840F0804502F5306000EB41101D
:1092E000056040F63C0080581D7805F00F0601250A
:1092F000B540134E06EA0545A84340F63C05A85084
:1093000040F61C008558187800F00F060120B04088
:109310000B4E06EA0040854340F61C00855002F5DE
:10932000306000EB41100068064D284002F53065C2
:1093300005EB41152860002070BD0000007833EC7B
:109340000000FFFF0078F3EF01460A46D2F8000E56
:1093500020F00300C2F8000E40F60400805820F010
:10936000020340F6040083500020704701460A467D
:10937000D2F8000E20F00300C2F8000E40F6040000
:10938000805840F0020340F60400835000207047EC
:109390000FB4F0B5054600272E46002405E0002155
:1093A00005F5827040F82410641C0F2CF7D39DF84B
:1093B0002200A0B940F60400805940F0020140F6B6
:1093C00004008151A86B40F40010A863A86B20F43E
:1093D0000020A863A86B20F48020A86307E0A86B96
:1093E00020F40010A863A86B40F40020A8630020BC
:1093F000C6F8000E9DF81D0001280CD19DF81B0039
:1094000020B90021284600F00AFD08E00121284685
:1094100000F005FD03E00321284600F000FD1021C7
:10942000284600F002FC00B10127284600F0D5FBD9
:1094300000B1012700214FF401608151001D8151CD
:1094400040F61C00815100242EE006F5106000EB70
:109450004410006800F00040B0F1004F10D13CB95A
:109460004FF0006106F5106000EB441001600DE064
:109470004FF0904106F5106000EB4410016005E0EC
:10948000002106F5106000EB44100160002106F594
:10949000106000EB441001614FF67F3106F510605B
:1094A00000EB44108160641C9DF81800A042CCD8E9
:1094B00000242EE006F5306000EB4410006800F058
:1094C0000040B0F1004F10D13CB94FF0006106F5FB
:1094D000306000EB441001600DE04FF0904106F564
:1094E000306000EB4410016005E0002106F53060BB
:1094F00000EB44100160002106F5306000EB4410E1
:1095000001614FF67F3106F5306000EB4410816059
:10951000641C9DF81800A042CCD84FF4016080591B
:1095200020F480714FF4016081510020A8616FF038
:10953000804068619DF81A0018B9A86940F01000D1
:10954000A861A8690A490843A8619DF81E0018B1DE
:10955000A86940F00800A8619DF82200012803D105
:10956000A86904490843A8613846F0BC5DF814FBBB
:1095700000383C80040000400146886820F001006B
:10958000886000207047000070B503460C461946FD
:109590001D6C1848854209D94FF43060405800F0DE
:1095A0000040B0F1004F01D1002070BD0026C1F88D
:1095B000106BD1F8100B40F40026C1F8106BD1F8F5
:1095C000100B40F01806C1F8106BD1F8100B40F0EA
:1095D000C046C1F8106B012C09D1C1F8142B4FF40F
:1095E0003060405840F080264FF4306046500020F4
:1095F000DBE700000A30544F30B504460B462246E4
:109600001978587801281ED102F5106000EB41103E
:10961000006820F4001502F5106000EB41100560B1
:109620001879032802D0187902282AD102F510608F
:1096300000EB4110006840F0805502F5106000EB2F
:10964000411005601DE002F5306000EB411000683C
:1096500020F4001502F5306000EB41100560187928
:10966000032802D0187902280BD102F5306000EBF4
:109670004110006840F0805502F5306000EB411069
:109680000560002030BD30B504460B4622461978EF
:109690005878012821D102F5106000EB41100068D4
:1096A00000F0004060B959B102F5106000EB4110C4
:1096B000006820F0804502F5106000EB4110056065
:1096C00002F5106000EB4110006840F4001502F54F
:1096D000106000EB4110056020E002F5306000EB07
:1096E0004110006800F0004060B959B102F53060E7
:1096F00000EB4110006820F0804502F5306000EB7F
:109700004110056002F5306000EB4110006840F444
:10971000001502F5306000EB41100560002030BDFF
:109720002DE9F84381460E4690464D4634787078D0
:1097300001287DD1306920BB05F5106000EB441095
:109740000069E649084005F5106101EB4411086124
:1097500005F5106000EB4410006940F4002105F5A8
:10976000106000EB4410016105F5106000EB44103F
:109770000069C10CC90405F5106000EB44100161DB
:109780006FE005F5106000EB44100069C10CC904DE
:1097900005F5106000EB4410016105F5106000EB69
:1097A00044100069CD49084005F5106101EB4411F2
:1097B000086194B9B1683069884201D9B0683061F4
:1097C00005F5106000EB4410006940F4002105F538
:1097D000106000EB4410016135E0B1683069084465
:1097E000401EB0FBF1F087B205F5106000EB4410AD
:1097F0000069BA49C94301EAC741084305F5106148
:1098000001EB44110861307901281CD105F5106085
:1098100000EB4410006920F0C04105F5106000EB3A
:109820004410016105F5106000EB4410006900E090
:1098300099E04FF0C04101EA4771084305F5106116
:1098400001EB4411086105F5106000EB441000695C
:109850003169C1F31201084305F5106101EB4411B0
:109860000861B8F1010F36D1F06928B105F5106033
:1098700000EB4410F1694161307901281ED140F6B6
:109880000800405900F4807060B905F5106000EBE5
:109890004410006840F0005105F5106000EB4410E2
:1098A00001600BE005F5106000EB4410006840F02B
:1098B000805105F5106000EB4410016005F5106063
:1098C00000EB4410006840F0044105F5106000EB27
:1098D00044100160FEE005F5106000EB44100068E4
:1098E00040F0044105F5106000EB44100160307950
:1098F00001280FD030690028ECD040F634004059E0
:10990000317801F00F0201219140084340F6340103
:109910004851DFE040F60800405900F4807060B91B
:1099200005F5106000EB4410006840F0005105F5AB
:10993000106000EB441001600BE005F5106000EBD7
:109940004410006840F0805105F5106000EB4410B1
:109950000160CDF80080308A83B232784846F168E1
:1099600000F0DAFAB6E005F5306000EB441000696B
:10997000C10CC90405F5306000EB4410016105F528
:10998000306000EB441000695449084005F530612F
:1099900001EB4411086104BB306908B1B068306163
:1099A000B068306205F5306000EB44100069316A40
:1099B000C1F31201084305F5306101EB4411086160
:1099C00005F5306000EB4410006940F4002105F516
:1099D000306000EB4410016143E03069D0B905F517
:1099E000306000EB44100069B168C1F31201084314
:1099F00005F5306101EB4411086105F5306000EBBD
:109A00004410006940F4002105F5306000EB44107B
:109A1000016126E0B16830690844401EB0FBF1F0F6
:109A200087B2B0687843306205F5306000EB4410CF
:109A300000692A49C94301EAC741084305F5306175
:109A400001EB4411086105F5306000EB441000693A
:109A5000316AC1F31201084305F5306101EB44118D
:109A60000861B8F1010F07D1F06828B105F5306041
:109A700000EB4410F1684161307901281ED140F6B5
:109A80000800405900F4807060B905F5306000EBC3
:109A90004410006840F0005105F5306000EB4410C0
:109AA00001600BE005F5306000EB4410006840F009
:109AB000805105F5306000EB4410016005F5306021
:109AC00000EB4410006840F0044105F5306000EB05
:109AD000441001600020BDE8F8830000FFFF07E0AC
